:1000000040C064C063C062C061C060C05FC05EC009
:100010005DC06CC35BC0D9C3B3C358C057C056C022
:1000200055C005C453C00000000037003400310043
:1000300000000000380035003200000000003600EB
:100040003300300004040404040404040202020225
:10005000020203030303030301020408102040808B
:100060000102040810200102040810200000000012
:100070000000000000030406000000000000000073
:100080003B0511241FBECFE5D4E0DEBFCDBF11E09C
:10009000A0E6B0E0EAEAF1E102C005900D92AE32CE
:1000A000B107D9F722E0AEE2B1E001C01D92AE3651
:1000B000B207E1F710E0C1E4D0E003C02197FE01F0
:1000C00068D8C034D107D1F710D56DC899CF843026
:1000D00039F0863049F0833051F48FB58F7702C004
:1000E0008FB58F7D8FBD089585B58F7D85BD0895B2
:1000F000CF93DF93EFE6F0E08491EBE5F0E0D4916D
:10010000E7E4F0E0C491CC2389F08111E0DFEC2F2B
:10011000F0E0EE0FFF1FE65CFF4FA591B491EC916C
:10012000ED2381E090E021F480E002C080E090E0E7
:10013000DF91CF9108951F93CF93DF93282F30E065
:10014000F901E459FF4F8491F901E85AFF4FD49126
:10015000F901EC5BFF4FC491CC23C1F0162F811144
:10016000B6DFEC2FF0E0EE0FFF1FE05DFF4FA59133
:10017000B4918FB7F894111105C09C91ED2FE095C3
:10018000E92302C0EC91ED2BEC938FBFDF91CF916F
:100190001F910895CF93DF9390E0FC01E85AFF4F41
:1001A0002491FC01EC5BFF4F8491882361F190E086
:1001B000880F991FFC01EA5DFF4FC591D491FC01A6
:1001C000E05DFF4FA591B491611109C09FB7F8940C
:1001D0008881209582238883EC912E230BC0623086
:1001E00061F49FB7F8943881822F809583238883A8
:1001F000EC912E2B2C939FBF06C08FB7F894E8810B
:100200002E2B28838FBFDF91CF9108953FB7F894AD
:100210008091C0019091C101A091C201B091C30130
:1002200022B708B600FE05C02F3F19F00196A11DA8
:10023000B11D3FBFBA2FA92F982F8827820F911D7C
:10024000A11DB11DBC01CD0142E0660F771F881FC3
:10025000991F4A95D1F708958F929F92AF92BF92BE
:10026000CF92DF92EF92FF926B017C01CFDF4B01C7
:100270005C01C114D104E104F104E9F0C7DFDC0141
:10028000CB0188199909AA09BB09883E9340A105A9
:10029000B10578F321E0C21AD108E108F10888EE2F
:1002A000880E83E0981EA11CB11CC114D104E10486
:1002B000F10421F7DECFFF90EF90DF90CF90BF9059
:1002C000AF909F908F9008952FB7F8946091BC01E4
:1002D0007091BD018091BE019091BF012FBF089523
:1002E000CF92DF92EF92FF920F931F93CF93DF9302
:1002F0006C017A018B01C0E0D0E0CE15DF0589F0FA
:10030000D8016D918D01D601ED91FC910190F081A4
:10031000E02DC6010995892B11F47E0102C02196BA
:10032000ECCFC701DF91CF911F910F91FF90EF901C
:10033000DF90CF900895FC01918D828D981761F028
:10034000828DDF01A80FB11D5D968C91928D9F5F0C
:100350009F73928F90E008958FEF9FEF0895FC01B7
:10036000918D828D981731F0828DE80FF11D858D6A
:1003700090E008958FEF9FEF0895FC01918D228DFD
:10038000892F90E0805C9F4F821B91098F73992782
:10039000089584EC91E0F1DF21E0892B09F420E05D
:1003A000822F0895FC01848DDF01A80FB11DA35A8F
:1003B000BF4F2C91848D90E001968F739927848F85
:1003C000A689B7892C93A089B1898C9180648C937C
:1003D000938D848D981306C00288F389E02D808167
:1003E0008F7D80830895EF92FF920F931F93CF9399
:1003F000DF93EC0181E0888F9B8D8C8D981305C075
:10040000E889F989808185FD23C0F62E0B8D10E0E7
:100410000F5F1F4F0F731127E02E8C8DE8120BC05A
:100420000FB607FCFACFE889F989808185FFF5CFFF
:10043000CE01B8DFF2CF8B8DFE01E80FF11DE35A3C
:10044000FF4FF0820B8FEA89FB898081806207C0B1
:10045000EE89FF896083E889F989808180648083DF
:1004600081E090E0DF91CF911F910F91FF90EF908D
:100470000895CF93DF93EC01888D8823C1F0EA893A
:10048000FB89808185FD05C0A889B9898C9186FD8D
:100490000EC00FB607FCF5CF808185FFF2CFA8898B
:1004A000B9898C9185FFEDCFCE017CDFE8CFDF915C
:1004B000CF91089580E090E0892B19F06ADF8111D7
:1004C0009FCD089585ED86BF06B604FCFDCF109242
:1004D0009B01089540915001262F30E0240F311DDB
:1004E00021323105DCF420919B012430C9F4FC0158
:1004F00080E090E0861758F4309150012191DC01A2
:10050000A25DBE4FA30FB11D2C930196F3CF809136
:100510005001680F6093500180E0089581E00895D4
:1005200082E00895089581E090E030919F0120914C
:100530009E01321710F480E090E091958195910929
:10054000089580919F0190919E01891730F48F5FEB
:1005500080939F0180E090E008958FEF9FEF0895D2
:1005600080919E0190E020919F01821B9109089546
:10057000CF93DF9300D0CDB7DEB7CB01642F498393
:100580005A83A8DF4981842F5A81952F0F900F90AD
:10059000DF91CF910895CF93DF931F92CDB7DEB750
:1005A000698361E0CE01019695DF81E090E00F90D4
:1005B000DF91CF910895009761F0FC010190002038
:1005C000E9F73197AF01481B590BBC0184EC91E06E
:1005D00087CE80E090E00895CF93DF93ECDFEC01CD
:1005E00080E890E0E8DF8C0F9D1FDF91CF910895A8
:1005F0008F929F92AF92BF92CF92DF92EF92FF9233
:100600000F931F93CF93DF93CDB7DEB7A1970FB6AC
:10061000F894DEBF0FBECDBF6C01990FEE08FF0846
:10062000F7FE2FC0E091C401F091C5010190F08167
:10063000E02D6DE284EC91E009958C0122273327AF
:10064000A9012C193D094E095F0919A2CE01819615
:100650007C019AE0892E912CA12CB12CCA01B90100
:10066000A501940174D5605DF70162937F012115A6
:1006700031054105510591F7CF019DDF080F191F85
:100680001CC0A701960119A28E010F5D1F4F8AE0C1
:10069000C82ED12CE12CF12CCA01B901A701960179
:1006A00056D5605DF80162938F0121153105410532
:1006B000510591F7CF017FDF8C0180E890E07BDF6F
:1006C000800F911FA1960FB6F894DEBF0FBECDBF6D
:1006D000DF91CF911F910F91FF90EF90DF90CF901E
:1006E000BF90AF909F908F90089559D51F920F9211
:1006F0000FB60F9211242F933F938F939F93AF9335
:10070000BF938091BC019091BD01A091BE01B091B9
:10071000BF013091BB0123E0230F2D3720F4019658
:10072000A11DB11D05C026E8230F0296A11DB11D14
:100730002093BB018093BC019093BD01A093BE01A7
:10074000B093BF018091C0019091C101A091C201FD
:10075000B091C3010196A11DB11D8093C00190937A
:10076000C101A093C201B093C301BF91AF919F910A
:100770008F913F912F910F900FBE0F901F90189562
:100780001F920F920FB60F9211242F933F934F9306
:100790005F936F937F938F939F93AF93BF93EF93E9
:1007A000FF9384EC91E0FEDDFF91EF91BF91AF915B
:1007B0009F918F917F916F915F914F913F912F9179
:1007C0000F900FBE0F901F9018951F920F920FB6AB
:1007D0000F9211242F938F939F93EF93FF93E091A8
:1007E000D401F091D5018081E091DA01F091DB0133
:1007F00082FD12C090818091DD018F5F8F73209107
:10080000DE01821751F0E091DD01F0E0EC53FE4F84
:10081000958F8093DD0101C08081FF91EF919F91C1
:100820008F912F910F900FBE0F901F9018951F92D0
:100830000F920FB60F9211242F933F934F935F9314
:100840006F937F938F939F93AF93BF93EF93FF9398
:1008500081B1887F803609F499C068F5883209F43F
:100860005BC090F4803109F454C038F4882309F453
:10087000EEC0883009F44DC0EDC0883109F44CC099
:10088000803209F45CC0E6C0803409F466C048F4E4
:10089000803309F454C0883309F0DCC080937501BB
:1008A000D1C0803509F44EC0883509F45BC0883466
:1008B00009F0D0C0CEC0883909F4C1C0A8F4883787
:1008C00009F464C038F4883609F460C0803709F44C
:1008D0005DC0C0C0883809F4B2C0803909F45CC07A
:1008E000803809F0B7C058C0803B09F481C038F4A3
:1008F000803A09F462C0883A09F47AC0ABC0803CFF
:1009000009F4A0C0883C09F49DC0883B09F485C067
:10091000A1C08091980110C090919701809196019B
:10092000981758F5E091970181E08E0F8093970119
:10093000F0E0EA58FE4F808183B985EC81C0809356
:10094000750187C0E091970181E08E0F8093970138
:1009500083B1F0E0EA58FE4F808390919701809137
:1009600096016AC0E091970181E08E0F8093970114
:1009700083B1F0E0EA58FE4F808380919A018111A3
:1009800068C081E08093990184EA5DC083E0809330
:100990009B0110927401D1CF80917401803208F0D4
:1009A0004EC0E091740181E08E0F8093740183B199
:1009B000F0E0EC5AFE4F8083C0CF85EC86BF1092EA
:1009C0009B0180917401803230F4E0917401F0E079
:1009D000EC5AFE4F10826091740170E0E091520178
:1009E000F091530184E591E009951092740132C0B1
:1009F00084E080939B011092510110925001E0918C
:100A00004E01F0914F01099580915001811105C06F
:100A100081E08093500110922E01E091510181E01C
:100A20008E0F80935101F0E0E25DFE4F808183B92B
:100A30009091510180915001981708F47ECF85E87C
:100A400086BF08C085EC86BF10929B0103C0109240
:100A5000750138DDFF91EF91BF91AF919F918F911B
:100A60007F916F915F914F913F912F910F900FBEAA
:100A70000F901F901895E4ECF1E01382128288EE3B
:100A800093E0A0E0B0E084839583A683B78324E657
:100A900030E03183208320E430E03587248749E249
:100AA00050E0578746874BE250E0518B408B4AE23B
:100AB00050E0538B428B358B248B2CE230E0378B0C
:100AC000268B118E128E138E148EE1E6F2E01382C5
:100AD000128284839583A683B78384E790E0918311
:100AE000808380E580936D020895789483B7826057
:100AF00083BF83B7816083BF89B7816089BF1EBC14
:100B00008EB582608EBD8EB581608EBD8FB58160E1
:100B10008FBD85B5846085BD85B5806485BD329AFD
:100B2000319A309A379A1AB8E091D401F091D501F0
:100B300082E08083E091D001F091D1011082E091B8
:100B4000D201F091D3018FEC80831092DC01E0910F
:100B5000D801F091D90186E88083E091D601F09127
:100B6000D701808180618083E091D601F091D70127
:100B7000808188608083E091D601F091D7018081E7
:100B800080688083E091D601F091D70180818F7DCC
:100B9000808310929F0110929E0110929D011092ED
:100BA0009C0110929B0181E080939A01109299011F
:100BB00061E082E1C0DA61E083E1BDDA089809987A
:100BC00088E480B985E486BF60E083E0E3DA61E031
:100BD00085E0E0DA60E085E0AEDA61E086E0DADA6E
:100BE00060E086E0A8DA61E087E0D4DA60E087E0E0
:100BF000A2DA6ADB6093A0017093A1018093A20145
:100C00009093A30161DB6093B4017093B50180936D
:100C1000B6019093B70164E670E080E090E01CDBE1
:100C200083E890E0D9DC64E670E080E090E014DBDB
:100C300001E010E0C1E0D0E084E0A82EB12C80916A
:100C4000BA018111DAC08091B8019091B901853063
:100C500091050CF0D2C018161906D4F461E085E0B5
:100C60006ADA80E990E0B8DC60ED77E080E090E05F
:100C7000F3DA60E085E05FDA27DB6093B40170931C
:100C8000B5018093B6019093B70189E990E0A4DCA7
:100C900083EA90E090DC6AE070E080E090E0DCDAEB
:100CA0008091B8019091B9010196A2DC6AE070E0F0
:100CB00080E090E0D1DA08DBC090B401D090B501BB
:100CC000E090B601F090B70120E9C20E2FE5D21EE8
:100CD00021E0E21EF11CC616D706E806F90608F464
:100CE0007FC006DA892B21F4D093B301C093B201FF
:100CF000FFD9019739F48091B2019091B301019726
:100D000009F449C08091BA018111D5CF8091AB011E
:100D10009091AC01892B69F4D7DA6093A7017093A5
:100D2000A8018093A9019093AA01D093AC01C0932C
:100D3000AB01CADAC090A701D090A801E090A90148
:100D4000F090AA012601370124EF420E21E0521E45
:100D5000611C711C641575058605970508F4ABCFF9
:100D600061E086E0E8D9B0DA28EEC20E23E0D21EB8
:100D7000E11CF11C6C157D058E059F0508F49BCFC9
:100D800060E086E0D8D91092AC011092AB018CEDF6
:100D900090E022DC90CFACD9019721F41092B301FE
:100DA0001092B20181E08093B1018093BA01109258
:100DB000B9011092B80188DADC01CB018057904A62
:100DC000AE4FBF4F8093AD019093AE01A093AF01A2
:100DD000B093B00160E086E0AED98EEB90E0FCDB32
:100DE0008091BA01811109C08091B8019091B90137
:100DF00001969093B9018093B8019091B1018091CF
:100E0000A601992301F181111EC060E087E093D90A
:100E100061E086E090D958DAC090AD01D090AE0183
:100E2000E090AF01F090B0012091B8013091B9018C
:100E30006C157D058E059F0508F406C1253031052A
:100E40000CF460C001C19091BA0191111EC02091B3
:100E5000B8013091B90125303105B9F4811115C0BF
:100E600081E08093A6011092A5011092A40160E098
:100E700086E061D961E087E05ED98DEF90E0ACDB80
:100E80006AE070E080E090E0E7D98091A6018823D5
:100E9000B9F12ED9892B21F41093B3010093B2013B
:100EA00027D90197D9F48091B2019091B3010197AC
:100EB000A9F41ED9019721F41092B3011092B20146
:100EC0008091A4019091A50101969093A501809332
:100ED000A40162E370E080E090E0BED98091A401BB
:100EE0009091A501039761F4B092B901A092B80165
:100EF00081E08093B1011092A60160E087E01BD9E8
:100F0000D9DA9DCE81E191E067DB80E291E053DBAD
:100F10008091B8019091B90101966ADB8091B80186
:100F20009091B90105970CF06BC08091A6018111D9
:100F300067C061E085E0FFD860ED77E080E090E099
:100F40008BD960E085E0F7D8BFD96093B401709386
:100F5000B5018093B6019093B701B6D9C090B401A2
:100F6000D090B501E090B601F090B70120E9C20E33
:100F70002FE5D21E21E0E21EF11CC616D706E806B8
:100F8000F906A8F1B5D8892B21F4D093B301C09309
:100F9000B201AED8019709F07EC08091B201909164
:100FA000B301019709F077C0A3D8019721F41092FB
:100FB000B3011092B20181E08093B10185D9DC01C7
:100FC000CB018057904AAE4FBF4F8093AD019093B5
:100FD000AE01A093AF01B093B0011092B90110928D
:100FE000B80160E086E0A7D888EE90E0F5DA80915D
:100FF000B8019091B90101969093B9018093B8011D
:101000008091B8019091B9010597C9F48091A6012A
:10101000811115C081E08093A6011092A501109264
:10102000A40160E086E087D861E087E084D88DEF96
:1010300090E0D2DA6AE070E080E090E00DD91092A2
:10104000A5011092A40114C0253031058CF081E077
:101050008093A60160E086E06ED861E087E06BD8FF
:101060008DEF90E0B9DA60E177E280E090E0F4D8CB
:101070003FD8892B21F41093B3010093B20138D8E3
:10108000019709F002CF8091B2019091B3010197CD
:1010900009F0FBCE45C08091AB019091AC01892B4A
:1010A00069F412D96093A7017093A8018093A901F4
:1010B0009093AA01D093AC01C093AB0105D9C09025
:1010C000A701D090A801E090A901F090AA01260103
:1010D000370124EF420E21E0521E611C711C641581
:1010E00075058605970508F438CF61E086E023D8BA
:1010F000EBD828EEC20E23E0D21EE11CF11C6C15C9
:101100007D058E059F0508F428CF60E086E013D8A2
:101110001092AC011092AB0182EE90E05DDA1DCF2F
:10112000E7D7019721F41092B3011092B201CCD805
:10113000DC01CB018057904AAE4FBF4F8093AD0189
:101140009093AE01A093AF01B093B0019ECEA1E207
:101150001A2EAA1BBB1BFD010DC0AA1FBB1FEE1F31
:10116000FF1FA217B307E407F50720F0A21BB30B7C
:10117000E40BF50B661F771F881F991F1A9469F7F8
:1011800060957095809590959B01AC01BD01CF0154
:101190000895EE0FFF1F0590F491E02D099481E072
:0A11A00090E0F89400C0F894FFCF2F
:1011AA0000000000F3017001BD019B01AF0139028B
:1011BA0000000000CB02B802B002A1029302920220
:1011CA000D0A00537461727420626F6172642E009A
:1011DA0052656C6179206F6E0052656C6179206F7F
:1011EA00464600576169742073746172742073797A
:1011FA007374656D2E2054727920E28496005761CB
:10120A0069742066697273742073746172742073CE
:10121A00797374656D202D204F4B2E0047726565DA
:10122A006E20626C696E6B00526573746172742011
:10123A0073797374656D202D204F4B2E00457272A1
:10124A006F722073746172742073797374656D2E72
:10125A000054696D65756F742C207265736574002E
:0E126A0054727920726573657420E2849600D8
:00000001FF
